{
  "contractName": "SendABox",
  "abi": [
    {
      "constant": true,
      "inputs": [],
      "name": "SZABO_PER_WEI",
      "outputs": [
        {
          "name": "",
          "type": "uint256"
        }
      ],
      "payable": false,
      "stateMutability": "view",
      "type": "function"
    },
    {
      "constant": true,
      "inputs": [],
      "name": "owner",
      "outputs": [
        {
          "name": "",
          "type": "address"
        }
      ],
      "payable": false,
      "stateMutability": "view",
      "type": "function"
    },
    {
      "inputs": [],
      "payable": false,
      "stateMutability": "nonpayable",
      "type": "constructor"
    },
    {
      "anonymous": false,
      "inputs": [
        {
          "indexed": true,
          "name": "_box_idx",
          "type": "uint256"
        },
        {
          "indexed": true,
          "name": "_sender",
          "type": "address"
        },
        {
          "indexed": false,
          "name": "_value",
          "type": "uint256"
        },
        {
          "indexed": false,
          "name": "_token",
          "type": "uint256"
        },
        {
          "indexed": false,
          "name": "_message",
          "type": "string"
        }
      ],
      "name": "ev_SendABoxEvent",
      "type": "event"
    },
    {
      "constant": false,
      "inputs": [
        {
          "name": "message",
          "type": "string"
        }
      ],
      "name": "Contract_SendABox",
      "outputs": [],
      "payable": true,
      "stateMutability": "payable",
      "type": "function"
    },
    {
      "constant": true,
      "inputs": [
        {
          "name": "_owner",
          "type": "address"
        }
      ],
      "name": "balanceOf",
      "outputs": [
        {
          "name": "",
          "type": "uint256"
        }
      ],
      "payable": false,
      "stateMutability": "view",
      "type": "function"
    },
    {
      "constant": true,
      "inputs": [],
      "name": "nowBoxid",
      "outputs": [
        {
          "name": "",
          "type": "uint256"
        }
      ],
      "payable": false,
      "stateMutability": "view",
      "type": "function"
    }
  ],
  "bytecode": "0x6080604052600060035534801561001557600080fd5b506000600381905550336000806101000a81548173ffffffffffffffffffffffffffffffffffffffff021916908373ffffffffffffffffffffffffffffffffffffffff1602179055506106118061006d6000396000f30060806040526004361061006d576000357c0100000000000000000000000000000000000000000000000000000000900463ffffffff1680630478ef4b14610072578063667229aa1461009d57806370a08231146100c85780638da5cb5b14610105578063ba757abb14610130575b600080fd5b34801561007e57600080fd5b5061008761014c565b604051610094919061047d565b60405180910390f35b3480156100a957600080fd5b506100b2610157565b6040516100bf919061047d565b60405180910390f35b3480156100d457600080fd5b506100ef60048036036100ea91908101906103a4565b610161565b6040516100fc919061047d565b60405180910390f35b34801561011157600080fd5b5061011a6101aa565b6040516101279190610462565b60405180910390f35b61014a600480360361014591908101906103cd565b6101cf565b005b662386f26fc1000081565b6000600354905090565b6000600460008373ffffffffffffffffffffffffffffffffffffffff1673ffffffffffffffffffffffffffffffffffffffff168152602001908152602001600020549050919050565b6000809054906101000a900473ffffffffffffffffffffffffffffffffffffffff1681565b600080600560009054906101000a900460ff161515156101ee57600080fd5b349150600160035401600381905550610217662386f26fc100008361030890919063ffffffff16565b905061026b81600460003373ffffffffffffffffffffffffffffffffffffffff1673ffffffffffffffffffffffffffffffffffffffff1681526020019081526020016000205461031e90919063ffffffff16565b600460003373ffffffffffffffffffffffffffffffffffffffff1673ffffffffffffffffffffffffffffffffffffffff168152602001908152602001600020819055503373ffffffffffffffffffffffffffffffffffffffff166003547f88fbfc87ab013b98e2bd419a0d8974220e533276ec5e3bb63b7bff2bca27694a8484876040516102fb93929190610498565b60405180910390a3505050565b6000818381151561031557fe5b04905092915050565b6000818301905082811015151561033157fe5b80905092915050565b60006103468235610564565b905092915050565b600082601f830112151561036157600080fd5b813561037461036f82610503565b6104d6565b9150808252602083016020830185838301111561039057600080fd5b61039b838284610584565b50505092915050565b6000602082840312156103b657600080fd5b60006103c48482850161033a565b91505092915050565b6000602082840312156103df57600080fd5b600082013567ffffffffffffffff8111156103f957600080fd5b6104058482850161034e565b91505092915050565b6104178161053a565b82525050565b60006104288261052f565b80845261043c816020860160208601610593565b610445816105c6565b602085010191505092915050565b61045c8161055a565b82525050565b6000602082019050610477600083018461040e565b92915050565b60006020820190506104926000830184610453565b92915050565b60006060820190506104ad6000830186610453565b6104ba6020830185610453565b81810360408301526104cc818461041d565b9050949350505050565b6000604051905081810181811067ffffffffffffffff821117156104f957600080fd5b8060405250919050565b600067ffffffffffffffff82111561051a57600080fd5b601f19601f8301169050602081019050919050565b600081519050919050565b600073ffffffffffffffffffffffffffffffffffffffff82169050919050565b6000819050919050565b600073ffffffffffffffffffffffffffffffffffffffff82169050919050565b82818337600083830152505050565b60005b838110156105b1578082015181840152602081019050610596565b838111156105c0576000848401525b50505050565b6000601f19601f83011690509190505600a265627a7a72305820b5e5f042aade6f1260f17b74dd42ec40e865a10490bfd098a7688715a76374ec6c6578706572696d656e74616cf50037",
  "source": "\r\n\r\npragma solidity ^0.4.21;\r\npragma experimental ABIEncoderV2;\r\n\r\n//import './AngelToken.sol';\r\nimport 'zeppelin-solidity/contracts/math/SafeMath.sol';\r\n\r\ncontract SendABox {\r\n    using SafeMath for uint256;\r\n    address public owner;\r\n    address developer;\r\n    address government;\r\n    //uint[5] canGiveValue;\r\n    uint public constant SZABO_PER_WEI = 10000000000000000; //  0^16 개ㅑ 0.01 ether = 1 token \r\n\r\n    uint256 box_idx = 0;\r\n    //uint[] public boxlist ;\r\n    \r\n    //AngelToken public token; 토큰 없애고 mapping 만들어서 포인트 처리\r\n    mapping(address => uint256) balances;\r\n\r\n    bool private closed;\r\n    \r\n    //event ev_GiveABoxFromDonator(uint256 _box_idx , address indexed _sender , string _message , uint _value , uint _token);\r\n\r\n    event ev_SendABoxEvent(uint256 indexed _box_idx , address indexed _sender , uint256 _value , uint256 _token , string _message);\r\n\r\n    //event ev_GetABox(address indexed _getter , uint256 _boxid , uint256 _value , uint256 _takevalue);\r\n    \r\n    /*\r\n    struct ABoxInfo {\r\n     //   uint    AboxNum;\r\n        address donator;\r\n        uint    value;\r\n        //string  message;\r\n    }\r\n*/\r\n   // ABoxInfo[] public ABoxList;\r\n   // address[] public ABoxListTest;\r\n    //mapping (uint => ABoxInfo ) boxtest;\r\n\r\n    /*\r\n    function SendABox(AngelToken _token) public {\r\n        //require(_token != address(0));\r\n        //token = _token; 토큰 제거 \r\n\r\n        //require(_token.owner != msg.sender);\r\n        owner = msg.sender;\r\n        canGiveValue[0] = 10000000000000000; // 0.01 ether 0이 16개 \r\n        canGiveValue[1] = 100000000000000000; // 0.1 ether 0이 17개 \r\n        canGiveValue[2] = 1000000000000000000; // 1 ether 0이 18개 \r\n        canGiveValue[3] = 10000000000000000000; // 10 ether 0이 19개 \r\n        canGiveValue[4] = 10000000000000000; // 0.01 ether 0이 16개 \r\n   \r\n    }\r\n    */\r\n    function SendABox() public {\r\n        //require(_token != address(0));\r\n        //token = _token; 토큰 제거 \r\n        box_idx = 0;\r\n        //require(_token.owner != msg.sender);\r\n        owner = msg.sender;\r\n        //canGiveValue[0] = 10000000000000000; // 0.01 ether 0이 16개 \r\n        //canGiveValue[1] = 100000000000000000; // 0.1 ether 0이 17개 \r\n        //canGiveValue[2] = 1000000000000000000; // 1 ether 0이 18개 \r\n        //canGiveValue[3] = 10000000000000000000; // 10 ether 0이 19개 \r\n        //canGiveValue[4] = 10000000000000000; // 0.01 ether 0이 16개 \r\n   \r\n    }\r\n\r\n    modifier onlyOwner() {\r\n        require(owner == msg.sender);\r\n        _;\r\n    }\r\n    /*\r\n    function setcanGiveValue(uint _num , uint _value) public onlyOwner returns (bool) {\r\n        canGiveValue[_num] = _value;\r\n    }\r\n\r\n     function getcanGiveValue(uint _num) public onlyOwner returns (uint) {\r\n        return canGiveValue[_num];\r\n    }\r\n    */\r\n/*\r\n    function getABoxInfo(uint num) public view returns (uint , address ) {\r\n        return (boxtest[num].value , boxtest[num].donator);\r\n    }\r\n\r\n    \r\n    function getABoxInfoStruct(uint num) public view returns (uint , address ) {\r\n\r\n        ABoxInfo memory aaa = boxtest[num];\r\n        return (aaa.value , aaa.donator );\r\n    }\r\n*/\r\n    /*\r\n    function getboxlistarray() public returns (uint[]) {\r\n        return boxlist;\r\n    }\r\n    */\r\n    /*\r\n    function GetAlBox() public returns (bool) {\r\n        msg.sender.transfer(1);\r\n        //msg.sender.transfer(address(this).balance);\r\n        return true;\r\n    }\r\n    */\r\n    /*\r\n    function giveABoxForMessage(string message) external payable {\r\n        require(!closed);\r\n        require(msg.value > 0);\r\n\r\n        giveABox(msg.sender , message);\r\n    }\r\n\r\n    function giveABox(address _from , string message) payable {\r\n        \r\n        require(!closed);\r\n        require(msg.value == canGiveValue[0] || msg.value == canGiveValue[1] || msg.value == canGiveValue[2] || msg.value == canGiveValue[3] || msg.value == canGiveValue[4]); \r\n          \r\n        uint256 amount = msg.value;\r\n        \r\n        //ABoxInfo memory boxinfo = ABoxInfo(_from , amount);\r\n        \r\n        var _id = ABoxList.push(ABoxInfo(_from , amount)) - 1;\r\n\r\n        uint256 tokencnt = amount.div(SZABO_PER_WEI);\r\n       \r\n        //token.tokenadd(_from , tokencnt); 토큰 삭제 \r\n\r\n        //emit ev_GiveABoxFromDonator(_id , msg.sender , message , msg.value , tokencnt);\r\n        emit ev_SendABoxEvent(_id , msg.sender , msg.value , tokencnt , message);\r\n    }\r\n    */\r\n    // Gas Used 를 줄이기 위해 message 를 받지 않고 DB 처리를 하는것이어떤가?\r\n    // message 추가 하면 최초 76442 , 61314 , 61442\r\n    function Contract_SendABox(string message) payable {\r\n        \r\n        require(!closed);\r\n        //require(msg.value == canGiveValue[0] || msg.value == canGiveValue[1] || msg.value == canGiveValue[2] || msg.value == canGiveValue[3] || msg.value == canGiveValue[4]); \r\n          \r\n        uint256 amount = msg.value; //주석처리 했을때 79066 -> 79052  , 58929 -> 58943\r\n        \r\n        //ABoxInfo memory boxinfo = ABoxInfo(_from , amount);\r\n        \r\n        //var _id = ABoxList.push(ABoxInfo(msg.sender , msg.value)) - 1; //주석 처리 했을때 79052 -> 33372\r\n        //var _id = ABoxListTest.push(msg.sender) - 1; /bal/ 구조체 안쓰고 msg.sender 만 저장 하게 했을때  79052 -> 58929\r\n        box_idx = box_idx + 1;\r\n \r\n        uint256 tokencnt = amount.div(SZABO_PER_WEI);\r\n\r\n        //token.tokenadd(msg.sender , tokencnt);\r\n        balances[msg.sender] = balances[msg.sender].add(tokencnt);\r\n        //emit ev_GiveABoxFromDonator(_id , msg.sender , message , msg.value , tokencnt);\r\n        emit ev_SendABoxEvent(box_idx , msg.sender , amount, tokencnt , message);\r\n    }\r\n    /*\r\n    function takeBox(address _getaddress , uint256 _boxid , uint256 _wei) public onlyOwner returns (bool) {\r\n\r\n        uint256 amount = _wei;\r\n\r\n        address donator = ABoxList[_boxid].donator;\r\n        uint256 boxvalue = ABoxList[_boxid].value;\r\n        \r\n        uint256 takevalue = boxvalue.sub(9);\r\n                \r\n        _getaddress.transfer(amount);\r\n\r\n        emit ev_GetABox(_getaddress , _boxid , amount , takevalue);\r\n       \r\n    }\r\n    */\r\n    /*\r\n\r\n    function getABoxInfo(uint256 _id) public view returns (address , uint256) {\r\n\r\n        return (ABoxList[_id].donator , ABoxList[_id].value);\r\n    }\r\n*/\r\n     function balanceOf(address _owner) public view returns (uint256) {\r\n        return balances[_owner];\r\n    }\r\n\r\n    function nowBoxid() public view returns (uint256) {\r\n        return box_idx;\r\n    }\r\n}",
  "sourcePath": "G:\\solidity\\REALPROJECT\\ETHBox\\contracts\\SendABox.sol",
  "compiler": {
    "name": "solc",
    "version": "0.4.24+commit.e67f0147.Emscripten.clang"
  },
  "schemaVersion": "2.0.0",
  "updatedAt": "2018-07-30T09:41:18.945Z"
}